:100000000C9451010C9482010C9482010C94820195
:100010000C9482010C9482010C9482010C94820154
:100020000C9482010C9482010C9482010C94820144
:100030000C9482010C9482010C9482010C94820134
:100040000C9482010C9482010C9482010C94820124
:100050000C9482010C9482010C9482010C94D908B6
:100060000C9482010C94AD090C9483090C948201C8
:100070000C9482010C9482010C9482010C948201F4
:100080000C9482010C9482010C9482010C948201E4
:100090000C9482010C9482010C9482010C94E3096B
:1000A0000C9482010C9482010C9482010C948201C4
:1000B0000C9482010C9482010C9482010C948201B4
:1000C0000C9482010C9482010C9482010C944D09D1
:1000D0000C9423090C9482010C9482010C948201EB
:1000E0000C9482010C94EA010C9417020C941B02EC
:1000F0000C9443050C940F060C94A5050C94F20186
:100100000C9425020C9484010C9485010C948903B1
:100110000C94B8050C94E2050C9413020C94BD02E7
:100120000C94DF020C9421020C94DB050C940D025C
:100130000C94EE010C94B9050C9405020C946E0716
:100140000C943E060C94CF010C94070B0C942103E5
:100150000C94C8050C94F5010C9409020C94FF0151
:100160000C94FB010C9481020C94D4010C94D102E8
:100170000C94AE020C94E601572C2020005B504FEB
:100180005720434F4E53554D50545D2000252C2091
:1001900020005B4241545D3A200000002100240011
:1001A00027002A002D003000330001010000040167
:1001B00007010A0100002200250028002B002E0064
:1001C0003100340002010000050108010B010505A2
:1001D0000505070508080808020202020A0A0808BD
:1001E00004040404010101010101010103030303EB
:1001F00003030303040707070C0C0C0C0C0C0C0C7A
:100200000202020206060606060606060B0B0B0B8A
:100210000B0B0B0B010210202008081020401020AF
:1002200040800201020108040201010204081020BA
:1002300040808040201008040201800402018040B8
:100240002010080402010804020101020408102021
:100250004080010204081020408000000A0B0209BF
:100260000C0D0E0807030401000000000000000050
:10027000000000000000000000000000000000007E
:10028000000000000000121110000000000000003B
:10029000000000000000000000000000000000005E
:1002A000070B11241FBECFEFD1E2DEBFCDBF00E0B0
:1002B0000CBF12E0A0E0B2E0EAE1F0E200E00BBF28
:1002C00002C007900D92A237B107D9F724E0A2E748
:1002D000B2E001C01D92A939B207E1F711E0C1E512
:1002E000D1E000E006C021970109802FFE010E94A5
:1002F000C70DC035D10780E00807A9F70E94740B2D
:100300000C940B100C9400000895089583E393E37C
:10031000ABECB1E48093390390933A03A0933B0391
:10032000B0933C0380E090E0A0E0B0E4809335031C
:1003300090933603A0933703B09338030895282F82
:1003400030E0F901E65AFD4F9491F901EC5EFD4F62
:10035000449122533E4FF9012491222309F435C0E0
:10036000992311F191509231F8F4E92FF0E08827A8
:10037000E354FE4F8F4F0C94C70DEE01F201CF01F5
:10038000E601EA01D401F501FB01FF0105020902C2
:100390000D0213021702D4011B02210225028091D3
:1003A00080008F7780938000E22FF0E0EE0FFF1F38
:1003B000EC54FE4FA591B4918FB7F894EC91611174
:1003C00048C040954E234C938FBF08958091800084
:1003D0008F7DE8CF80918000877FE4CF84B58F77D1
:1003E00084BDE2CF84B58F7DFBCF8091B0008F7745
:1003F0008093B000D9CF8091B0008F7DF9CF8091EC
:1004000090008F7780939000CFCF809190008F7D68
:10041000F9CF80919000877FF5CF8091A0008F77F2
:100420008093A000C1CF8091A0008F7DF9CF8091F3
:10043000A000877FF5CF809120018F7780932001E6
:10044000B3CF809120018F7DF9CF80912001877FEC
:10045000F5CF4E2BB8CFCF93DF9390E0FC01EC5E4D
:10046000FD4F249182539E4FFC0184918823D1F04B
:1004700090E0880F991FFC01E656FE4FA591B491BC
:10048000FC01EC54FE4FC591D491623071F49FB7DA
:10049000F8943C91822F809583238C93E8812E2BB6
:1004A00028839FBFDF91CF9108958FB7F894EC9187
:1004B0002E2B2C938FBFF6CF3FB7F8948091E30299
:1004C0009091E402A091E502B091E60226B5A89BC6
:1004D00005C02F3F19F00196A11DB11D3FBFBA2FD6
:1004E000A92F982F8827BC01CD01620F711D811D96
:1004F000911D42E0660F771F881F991F4A95D1F71B
:100500000895AF92BF92CF92DF92EF92FF920F9336
:100510001F93CF93DF936C017B018B01040F151F99
:10052000EB015E01AE18BF08C017D10759F0699101
:10053000D601ED91FC910190F081E02DC601199555
:10054000892B79F7C501DF91CF911F910F91FF9012
:10055000EF90DF90CF90BF90AF900895FC01538D46
:10056000448D252F30E0842F90E0821B930B54178D
:1005700010F0CF96089501970895FC01918D828D1A
:10058000981761F0A28DAE0FBF2FB11D5D968C91B3
:10059000928D9F5F9F73928F90E008958FEF9FEFF2
:1005A0000895FC01918D828D981731F0828DE80FAE
:1005B000F11D858D90E008958FEF9FEF0895FC0168
:1005C000918D228D892F90E0805C9F4F821B910935
:1005D0008F739927089585E493E00E94DF0221E05C
:1005E000892B09F420E0822F089582EE93E00E9487
:1005F000DF0221E0892B09F420E0822F0895FC011D
:10060000A48DA80FB92FB11DA35ABF4F2C91848D73
:1006100090E001968F739927848FA689B7892C93D0
:10062000A089B1898C91837080648C93938D848D23
:10063000981306C00288F389E02D80818F7D808326
:100640000895EF92FF920F931F93CF93DF93EC01E6
:1006500081E0888F9B8D8C8D98131AC0E889F98969
:10066000808185FF15C09FB7F894EE89FF8960836C
:10067000E889F98980818370806480839FBF81E0ED
:1006800090E0DF91CF911F910F91FF90EF9008952F
:10069000F62E0B8D10E00F5F1F4F0F731127E02E0A
:1006A0008C8D8E110CC00FB607FCFACFE889F98942
:1006B000808185FFF5CFCE010E94FF02F1CFEB8D47
:1006C000EC0FFD2FF11DE35AFF4FF0829FB7F89416
:1006D0000B8FEA89FB8980818062CFCF0F931F93B4
:1006E000CF93DF938C01D0E0C0E0F801EC0FFD1F49
:1006F0006491662341F082EE93E00E942103892BEE
:1007000011F02196F2CFCE01DF91CF911F910F9181
:100710000895CF93DF93EC01888D8823B9F0AA89DF
:10072000BB89E889F9898C9185FD03C0808186FDAC
:100730000DC00FB607FCF7CF8C9185FFF2CF8081FB
:1007400085FFEDCFCE010E94FF02E9CFDF91CF916F
:10075000089580E090E0892B29F00E94F502811134
:100760000E94000080E090E0892B49F080E090E05A
:10077000892B29F00E94000081110E94000080E076
:1007800090E0892B29F00E94EB0281110E94000069
:1007900080E090E0892B49F080E090E0892B29F0FF
:1007A0000E94000081110C94000008952091930292
:1007B000260F3327331F21323105ECF420910D032E
:1007C000FC0190E080E0243069F082E00895A0917F
:1007D00093022191AC014D585D4FA40FB52FB11D6F
:1007E0002C930196861798F380919302680F60937B
:1007F000930280E0089581E0089510920D0381E056
:1008000080930C031092E70261E084E10E949F0153
:1008100061E085E10E949F01E9EBF0E080818E7F3D
:10082000808380818D7F808388E48093B80085E415
:100830008093BC00089510924403109243031092D9
:100840004203109241030E94FD0384E891E09093DB
:10085000400380933F0385E891E090933E038093AB
:100860003D030895CF93DF9391E090937202882324
:10087000B9F0C091B800D091BA008091BC008A7BD9
:100880008093BC0060E084E10E949F0160E085E10C
:100890000E949F010E94FD03D093BA00C093B8004C
:1008A000DF91CF9108958F929F92AF92BF92CF9296
:1008B000DF92EF92FF920F931F93CF93DF93D0912C
:1008C0004103D13208F0D7C0182FC09134030E94E1
:1008D0005C026B017C0180910D0381116BC082E091
:1008E00080930D0310930C038FEF80930B031092F2
:1008F0000A03D0930903A4E1B3E0E9EEF2E080E05B
:10090000D81391C01092E8028091E802CC0FC82B56
:10091000C093E8028091E702813009F088C010920C
:10092000E7020E945C026B017C018091E8028093E7
:10093000BB0080910F0390911003A0911103B0911F
:100940001203892B8A2B8B2BA1F00E945C02009151
:100950000F031091100320911103309112036C19B1
:100960007D098E099F09061717072807390708F41C
:1009700042C08091BC0083FDD8CF85EC8093BC0041
:100980000E945C026B017C0180910D03823009F4AE
:1009900050C080910B038F3F09F46FC080910B030F
:1009A000803209F46CC080910B03803309F469C074
:1009B00084E026C080910F0390911003A091110351
:1009C000B0911203892B8A2B8B2B09F484CF0E94C0
:1009D0005C0280900F0390901003A0901103B090E0
:1009E00012036C197D098E099F0986169706A806C1
:1009F000B90608F070CF80910E030E94320485E0A2
:100A0000109242031092410310921303DF91CF9191
:100A10001F910F91FF90EF90DF90CF90BF90AF901C
:100A20009F908F9008959D9191938F5F69CF85EEF0
:100A3000A5CF80910F0390911003A0911103B09165
:100A40001203892B8A2B8B2B09F49ECF0E945C0208
:100A500000910F03109110032091110330911203A4
:100A60006C197D098E099F09061717072807390792
:100A700008F08ACFC0CF81E0C3CF80E0C1CF82E051
:100A8000BFCF83E0BDCFCF92DF92EF92FF920F9363
:100A90001F93CF93DF938C01C62F6A01790182E007
:100AA00090E0D80113969C938E9312970E941B049A
:100AB000F80184859585238531E0309313032093D5
:100AC00034031092420310924103DC01ED91FC913A
:100AD0000190F081E02D6C2F1995E601EC0CFD1CC6
:100AE000CE15DF0561F0F801848595856991DC01FB
:100AF000ED91FC910190F081E02D1995F1CF81E00D
:100B00000E945304F80113821282DF91CF911F914A
:100B10000F91FF90EF90DF90CF900895CF93DF93E8
:100B20001F921F92CDB7DEB779836A8322E030E04F
:100B3000AE014F5F5F4F682F8BE894E00E94430542
:100B40000F900F90DF91CF910895FC01838591E084
:100B50009093130380933403109242031092410345
:100B600081E00E94530491E0811190E0892F089563
:100B70000895E091440380914303E81730F4F0E0D6
:100B8000EA54FD4F808190E008958FEF9FEF089524
:100B900090914403809143032FEF3FEF981748F45F
:100BA000E92FF0E0EA54FD4F208130E09F5F909301
:100BB0004403C90108958091430390914403891B24
:100BC000990B0895CF92DF92EF92FF920F931F93AC
:100BD000CF93DF937C01CB018A0120911303222361
:100BE00089F0EB016B01C40ED51ECC15DD0569F053
:100BF0006991D701ED91FC910190F081E02DC70141
:100C00001995F3CF642F0E94D603C801DF91CF91CD
:100C10001F910F91FF90EF90DF90CF900895CF93A9
:100C2000DF931F92CDB7DEB7698320911303222390
:100C3000F9F020914103203258F021E030E0FC012E
:100C40003383228390E080E00F90DF91CF9108956D
:100C500080914203E82FF0E0EC5EFC4F9981908395
:100C60008F5F809342038093410381E090E0ECCF5B
:100C700061E0CE0101960E94D603F7CF90E080E0BC
:100C80000895FC0101900020E9F73197AF01481B5E
:100C9000590BBC0182EE93E00C9481028F929F92DB
:100CA000AF92BF920F931F93CF93DF93CDB7DEB771
:100CB000A1970FB6F894DEBF0FBECDBF19A2423088
:100CC00008F44AE08E010F5D1F4F842E912CB12C49
:100CD000A12CA50194010E94A50DE62FB901CA011E
:100CE000EA30F4F4E05DD801EE938D01232B242B40
:100CF000252B79F790E080E0109719F0CD010E9444
:100D00004106A1960FB6F894DEBF0FBECDBFDF91AE
:100D1000CF911F910F91BF90AF909F908F900895AA
:100D2000E95CE1CF4F925F926F927F928F929F9298
:100D3000AF92BF92CF92DF92EF92FF920F931F93E9
:100D4000CF936B017C01742EAC019B010E940610B5
:100D5000882399F08EE492E0CF911F910F91FF903C
:100D6000EF90DF90CF90BF90AF909F908F907F904B
:100D70006F905F904F900C94410646015701E894A4
:100D8000B7F82FEF3FEF4FE75FE7C501B4010E94CF
:100D9000061081110DC02FEF3FEF4FE75FE7C50150
:100DA000B4010E943C0E18161CF482E592E0D4CFE8
:100DB0002FEF3FEF4FE75FE4C701B6010E94940FAA
:100DC00018161CF486E592E0C7CF2FEF3FEF4FE7F0
:100DD0005FECC701B6010E943C0E87FDF3CF20E017
:100DE00030E0A901C701B6010E943C0E10E000E00E
:100DF00087FF0AC06DE282EE93E00E9421038C011E
:100E0000F7FAF094F7F8F094C0E060E070E080E06A
:100E10009FE37C1641F020E030E040E251E40E9484
:100E2000410ECF5FF6CFA70196010E94D00D2B0196
:100E30003C010E94B30E4B015C014AE00E944E0649
:100E40007C01E00EF11ECC23C1F1C501B4010E946A
:100E5000E20E9B01AC01C301B2010E94CF0D4B0118
:100E60005C016EE282EE93E00E942103E80EF91E1F
:100E7000C15018F120E030E040E251E4C501B40176
:100E80000E94990F2B013C010E94B30E4B01B12C23
:100E9000A12C4AE0C501B4010E944E06E80EF91EDD
:100EA000C501B4010E94E20E9B01AC01C301B20175
:100EB0000E94CF0D4B015C01DBCFC701CF911F9189
:100EC0000F91FF90EF90DF90CF90BF90AF909F90E9
:100ED0008F907F906F905F904F9008954F925F92A8
:100EE0006F927F92BF92CF92DF92EF92FF920F9319
:100EF0001F93CF93DF93EC01162FB42EE52E6901DB
:100F000083E090E09B838A830E941B048C859D85EF
:100F10002B8531E030931303209334031092420366
:100F200010924103DC01ED91FC910190F081E02DE4
:100F3000612F199581E00E945304082F8111D7C0B9
:100F4000FB840E945C022B013C0180910D03811106
:100F500068C01C2D113208F010E281E080930D036F
:100F600080930C039FEF90930B0310920A03910F51
:100F7000909309038093E8028091E802FF0CF82A1D
:100F8000F092E8028091E702813009F087C0109268
:100F9000E7020E945C022B013C018091E8028093F1
:100FA000BB0080910F0390911003A0911103B091A9
:100FB0001203892B8A2B8B2BA1F00E945C022091BB
:100FC0000F033091100340911103509112036419E3
:100FD000750986099709261737074807590708F43E
:100FE00041C08091BC0083FDD8CF85EC8093BC00CC
:100FF0000E945C022B013C0180910D03813009F4B9
:101000004FC080910A03811710F410910A03E9EE92
:10101000F2E0A6EBB2E0011749F181918D930F5FE9
:10102000FACF80910F0390911003A0911103B0911A
:101030001203892B8A2B8B2B09F487CF0E945C0229
:1010400020910F033091100340911103509112032E
:10105000641975098609970926173707480759073C
:1010600008F073CF80910E030E9432041092440363
:10107000009343030B2D1E2DC00ED11EC016D106AA
:1010800089F18C859D85DC01ED91FC910284F385CD
:10109000E02D1995F80181938F01F0CF85EEA6CF51
:1010A00080910F0390911003A0911103B09112034E
:1010B000892B8A2B8B2B09F49FCF0E945C022091F5
:1010C0000F033091100340911103509112036419E2
:1010D000750986099709261737074807590708F041
:1010E0008BCFC0CF81E00E9453041B821A82DF9114
:1010F000CF911F910F91FF90EF90DF90CF90BF9015
:101100007F906F905F904F900895CF93DF931F92E1
:101110001F92CDB7DEB71A82198222E030E0AE010D
:101120004F5F5F4F60E08BE894E00E946E0789811B
:101130009A819827892798270F900F90DF91CF9158
:10114000089585ED8093BC0080910F03909110036A
:10115000A0911103B09112030796A11DB11D23E0C8
:10116000B695A795979587952A95D1F72091BC00BC
:1011700024FD03C010920D03089540910F03509178
:1011800010036091110370911203452B462B472BDE
:1011900069F30097A105B10541F02AE22A95F1F71C
:1011A00000C00197A109B109E1CF80910E030C9411
:1011B00032041F920F920FB60F9211242F933F9378
:1011C0008F939F93AF93BF938091DF029091E00242
:1011D000A091E102B091E2023091DE0223E0230F00
:1011E0002D3758F50196A11DB11D2093DE02809385
:1011F000DF029093E002A093E102B093E2028091BB
:10120000E3029091E402A091E502B091E60201961A
:10121000A11DB11D8093E3029093E402A093E50227
:10122000B093E602BF91AF919F918F913F912F9123
:101230000F900FBE0F901F90189526E8230F02966F
:10124000A11DB11DD2CF1F920F920FB60F92112484
:101250000BB60F922F933F934F935F936F937F93B0
:101260008F939F93AF93BF93EF93FF9385E493E0A6
:101270000E94FF02FF91EF91BF91AF919F918F91DB
:101280007F916F915F914F913F912F910F900BBE86
:101290000F900FBE0F901F9018951F920F920FB6D0
:1012A0000F9211240BB60F922F938F939F93EF936E
:1012B000FF93E0915503F09156038081E0915B0329
:1012C000F0915C0382FD1DC0908180915E038F5F71
:1012D0008F7320915F03821741F0E0915E03F0E08D
:1012E000EB5BFC4F958F80935E03FF91EF919F9195
:1012F0008F912F910F900BBE0F900FBE0F901F90EC
:1013000018958081F2CF1F920F920FB60F92112481
:101310000BB60F922F933F934F935F936F937F93EF
:101320008F939F93AF93BF93EF93FF9382EE93E0DE
:101330000E94FF02FF91EF91BF91AF919F918F911A
:101340007F916F915F914F913F912F910F900BBEC5
:101350000F900FBE0F901F9018951F920F920FB60F
:101360000F9211240BB60F922F938F939F93EF93AD
:10137000FF93E091F203F091F3038081E091F80391
:10138000F091F90382FD1DC090818091FB038F5F76
:101390008F732091FC03821741F0E091FB03F0E092
:1013A000EE51FC4F958F8093FB03FF91EF919F913E
:1013B0008F912F910F900BBE0F900FBE0F901F902B
:1013C00018958081F2CF1F920F920FB60F921124C1
:1013D0000BB60F922F933F934F935F936F937F932F
:1013E0008F939F93AF93BF93EF93FF938091B90037
:1013F000887F803609F44DC008F040C0883209F477
:10140000A9C028F5803109F49DC0C8F4882309F4E7
:10141000FBC0883009F496C0FF91EF91BF91AF9166
:101420009F918F917F916F915F914F913F912F91FC
:101430000F900BBE0F900FBE0F901F901895883124
:1014400009F488C0803241F780930B0314C08034C4
:1014500009F49DC040F48033B9F38833E9F68093F2
:101460000B0385ECB0C0803509F485C0883509F4DC
:1014700096C0883489F60E94A108CECF883909F435
:101480008CC038F5883729F050F4883611F0803751
:1014900019F683E080930D031092B50257C0883887
:1014A00009F47BC0803919F0803809F0B5CF8091FC
:1014B000B502803208F071C0E091B50281E08E0F74
:1014C0008093B5028091BB00F0E0EB56FD4F808326
:1014D0003DC0803B39F0E0F4803A09F479C0883AA5
:1014E00009F09ACF84E080930D0310929402109239
:1014F0009302E0913F03F09140031995809193028C
:1015000081110FC081E0809393021092730209C091
:10151000803C09F4A6CF883C09F4A3CF883B09F0AE
:101520007BCFE091940281E08E0F80939402F0E0F3
:10153000ED58FD4F80818093BB0090919402809183
:10154000930229C08091E8028093BB0085EC8093D0
:10155000BC0062CF90910A0380910903981758F557
:10156000E0910A0381E08E0F80930A03F0E0E751D7
:10157000FD4F8081E9CFE0910A0381E08E0F8093D7
:101580000A038091BB00F0E0E751FD4F808390910A
:101590000A03809109039817C8F285E8D8CFE09133
:1015A0000A0381E08E0F80930A038091BB00F0E074
:1015B000E751FD4F808380910C0381115CCF81E066
:1015C0008093E70284EA8093BC0010920D0324CF3D
:1015D00085EC8093BC0010920D038091B50280329F
:1015E00030F4E091B502F0E0EB56FD4F10826091CF
:1015F000B50270E0E0913D03F0913E0385E992E091
:1016000019951092B50208CF10920B0334CFE5E480
:10161000F3E01382128288EE93E0A0E0B0E08483CE
:101620009583A683B78324E232E03183208345ED9E
:1016300050E05587448744ED50E05787468740ED9A
:1016400050E0518B408B41ED50E0538B428B42ED8B
:1016500050E0558B448B46ED50E0578B468B118EF6
:10166000128E138E148EE2EEF3E0138212828483C4
:101670009583A683B7833183208325EC30E03587BB
:10168000248724EC30E03787268720EC30E0318B4C
:10169000208B21EC30E0338B228B22EC30E0358B39
:1016A000248B26EC30E0378B268B118E128E138E16
:1016B000148EEFE7F4E01382128284839583A6836D
:1016C000B78386E392E091838083ABE8B4E088E45B
:1016D00092E011969C938E931D96FC93EE931C972B
:1016E00085E41B968C930895789484B5826084BDBC
:1016F00084B5816084BD85B5826085BD85B5816016
:1017000085BD80916E00816080936E001092810093
:10171000809181008260809381008091810081604E
:10172000809381008091800081608093800080910F
:10173000B10084608093B1008091B000816080939B
:10174000B00080919100826080939100809191001F
:1017500081608093910080919000816080939000DF
:101760008091A10082608093A1008091A10081609E
:101770008093A1008091A00081608093A00080915F
:1017800021018260809321018091210181608093F9
:1017900021018091200181608093200180917A0055
:1017A000846080937A0080917A00826080937A00CE
:1017B00080917A00816080937A0080917A008068BD
:1017C00080937A001092C100E091F203F091F3034C
:1017D00022E02083E091EE03F091EF031082E0918C
:1017E000F003F091F10380E180831092FA03E0911D
:1017F000F603F091F70396E09083E091F403F09103
:10180000F503808180618083E091F403F091F5031A
:10181000808188608083E091F403F091F5038081FA
:1018200080688083E091F403F091F50380818F7DDF
:101830008083E0915503F09156032083E09151039A
:10184000F09152031082E0915303F09154038FEC16
:10185000808310925D03E0915903F0915A039083C5
:10186000E0915703F0915803808180618083E0917B
:101870005703F0915803808188608083E09157037B
:10188000F0915803808180688083E0915703F09144
:10189000580380818F7D8083C0E0D2E000E212E0B7
:1018A0008881229662E00E942B020C171D07C1F767
:1018B00061E08CE20E942B0261E08DE20E942B022B
:1018C00061E08BE00E942B0261E08AE00E942B0223
:1018D00081E090E090938E0480938D040E941B041D
:1018E0008BE894E00E94A5058823B1F10E94850849
:1018F000BC01706280E00E948E050E948508BC01D8
:10190000786180E00E948E050E9485088F77987F1D
:10191000BC016068756080E00E948E050E948508A9
:101920008778BC01686580E00E948E050E9485086A
:10193000BC01676080E00E948E0580E090E190939A
:10194000900480938F0460E070E185E00E948E0532
:1019500010928E0410928D0460918F047091900407
:1019600090E080E00E94E20E25E535E54DE75FE37B
:101970000E94990F0E94B30E6E7F70939004609343
:101980008F0485E00E948E050E948601C090390375
:10199000D0903A03E0903B03F0903C0323E333E321
:1019A0004BEC51E4C701B6010E94940F18160CF0DD
:1019B0009CC080E090E0A8ECB2E48093DA029093BF
:1019C000DB02A093DC02B093DD02A70196016091D7
:1019D00035037091360380913703909138030E944C
:1019E000990F6093D6027093D7028093D802909398
:1019F000D9028AE592E00E94410660913903709114
:101A00003A0380913B0390913C0342E00E9492068E
:101A100084E692E00E94410687E692E00E94410639
:101A200060913503709136038091370390913803AC
:101A300042E00E94920684E692E00E94410682E91A
:101A400091E00E946E036091DA027091DB02809156
:101A5000DC029091DD0241E00E9492068DE891E067
:101A60000E946E0384E692E00E9441060E945C029E
:101A70006B017C0184EF882E99249394A12CB12CC6
:101A80000E945C026C197D098E099F09683E7340B3
:101A900081059105A8F321E0821A9108A108B108F7
:101AA00088EEC80E83E0D81EE11CF11C811491045D
:101AB000A104B10429F78DE791E00E946E036091C3
:101AC000D6027091D7028091D8029091D90242E05B
:101AD0000E94920688E791E00E946E0384E692E0FD
:101AE0000E9441060E94A9034FCF20E030E048EB5E
:101AF00051E4C701B6010E943C0E87FF09C0109255
:101B0000DA021092DB021092DC021092DD025DCF4D
:101B100020E030E048EB51E4C701B6010E94CF0D50
:101B200028E939E949E150E40E94410E20E030E023
:101B300048EC52E40E94990F6093DA027093DB0242
:101B40008093DC029093DD0240CFA1E21A2EAA1B03
:101B5000BB1BFD010DC0AA1FBB1FEE1FFF1FA2175D
:101B6000B307E407F50720F0A21BB30BE40BF50B5A
:101B7000661F771F881F991F1A9469F760957095E3
:101B8000809590959B01AC01BD01CF010895EE0FAA
:101B9000FF1F881F8BBF0790F691E02D19945058B6
:101BA000BB27AA270E94E70D0C945A0F0E944C0FE6
:101BB00038F00E94530F20F039F49F3F19F426F4B7
:101BC0000C94490F0EF4E095E7FB0C94430FE92FBA
:101BD0000E946B0F58F3BA176207730784079507C3
:101BE00020F079F4A6F50C948D0F0EF4E0950B2EF1
:101BF000BA2FA02D0B01B90190010C01CA01A0015F
:101C00001124FF27591B99F0593F50F4503E68F1B9
:101C10001A16F040A22F232F342F4427585FF3CFFA
:101C2000469537952795A795F0405395C9F77EF4CB
:101C30001F16BA0B620B730B840BBAF09150A1F014
:101C4000FF0FBB1F661F771F881FC2F70EC0BA0F9A
:101C5000621F731F841F48F4879577956795B79522
:101C6000F7959E3F08F0B0CF9395880F08F099271D
:101C7000EE0F9795879508950E941F0F08F481E055
:101C800008950E94550E0C945A0F0E94530F58F05D
:101C90000E944C0F40F029F45F3F29F00C94430F51
:101CA00051110C948E0F0C94490F0E946B0F68F326
:101CB0009923B1F3552391F3951B550BBB27AA2705
:101CC00062177307840738F09F5F5F4F220F331F3F
:101CD000441FAA1FA9F335D00E2E3AF0E0E832D007
:101CE00091505040E695001CCAF72BD0FE2F29D00A
:101CF000660F771F881FBB1F261737074807AB07DC
:101D0000B0E809F0BB0B802DBF01FF2793585F4F50
:101D10003AF09E3F510578F00C94430F0C948E0FCF
:101D20005F3FE4F3983ED4F3869577956795B79532
:101D3000F7959F5FC9F7880F911D9695879597F93D
:101D40000895E1E0660F771F881FBB1F62177307B6
:101D50008407BA0720F0621B730B840BBA0BEE1FCB
:101D600088F7E09508950E94730F88F09F5798F0C8
:101D7000B92F9927B751B0F0E1F0660F771F881F90
:101D8000991F1AF0BA95C9F714C0B13091F00E94AA
:101D90008D0FB1E008950C948D0F672F782F882751
:101DA000B85F39F0B93FCCF3869577956795B395D1
:101DB000D9F73EF490958095709561957F4F8F4F40
:101DC0009F4F0895E89409C097FB3EF49095809545
:101DD000709561957F4F8F4F9F4F9923A9F0F92FF1
:101DE00096E9BB279395F695879577956795B7956F
:101DF000F111F8CFFAF4BB0F11F460FF1BC06F5F55
:101E00007F4F8F4F9F4F16C0882311F096E911C066
:101E1000772321F09EE8872F762F05C0662371F087
:101E200096E8862F70E060E02AF09A95660F771F9B
:101E3000881FDAF7880F9695879597F90895990F77
:101E40000008550FAA0BE0E8FEEF16161706E80784
:101E5000F907C0F012161306E407F50798F0621BA5
:101E6000730B840B950B39F40A2661F0232B242B7A
:101E7000252B21F408950A2609F4A140A6958FEF99
:101E8000811D811D089597F99F6780E870E060E0EB
:101E900008959FEF80EC089500240A941616170603
:101EA00018060906089500240A941216130614064B
:101EB00005060895092E0394000C11F4882352F0AE
:101EC000BB0F40F4BF2B11F460FF04C06F5F7F4F66
:101ED0008F4F9F4F089557FD9058440F551F59F04D
:101EE0005F3F71F04795880F97FB991F61F09F3F07
:101EF00079F087950895121613061406551FF2CF30
:101F00004695F1DF08C0161617061806991FF1CF7F
:101F100086957105610508940895E894BB276627A6
:101F20007727CB0197F908950E941F0F08F48FEFD0
:101F300008950E94AC0F0C945A0F0E944C0F38F079
:101F40000E94530F20F0952311F00C94430F0C9432
:101F5000490F11240C948E0F0E946B0F70F3959F04
:101F6000C1F3950F50E0551F629FF001729FBB2790
:101F7000F00DB11D639FAA27F00DB11DAA1F649F2C
:101F80006627B00DA11D661F829F2227B00DA11DDF
:101F9000621F739FB00DA11D621F839FA00D611D65
:101FA000221F749F3327A00D611D231F849F600D86
:101FB000211D822F762F6A2F11249F5750409AF0AF
:101FC000F1F088234AF0EE0FFF1FBB1F661F771F3B
:101FD000881F91505040A9F79E3F510580F00C9406
:101FE000430F0C948E0F5F3FE4F3983ED4F3869535
:101FF00077956795B795F795E7959F5FC1F7FE2BA6
:10200000880F911D9695879597F908950E941F0F47
:0A201000880B990B0895F894FFCF98
:10201A004500440043004200410040003F003E00AA
:10202A003D003C003B003A00390004000500060070
:10203A000000000021038102AE028903DF02BD0213
:10204A00D102000000000F06E2053E06B805DB05D6
:10205A00C805B90500000000A50543056E076E61B5
:10206A006E00696E66006F766600566F6C74616703
:10207A00653A20000D0A0043757272656E743A2043
:02208A00000054
:00000001FF
